S0120000616F6E626F66666C65642E7372656302
S11300000C945A000C9477000C9477000C947700AD
S11300100C9477000C9477000C9477000C94770080
S11300200C9477000C9477000C9477000C94770070
S11300300C9477000C94F6000C9477000C947700E1
S11300400C9477000C9477000C94C1000C94770006
S11300500C949A000C9477000C9477000C9477001D
S11300600C9477000C9477000C9477000C94770030
S11300700C9477000C9477000C9477000C94770020
S11300800C9477000C9477000C9477000C94770010
S11300900C9477000C9477000C9477000C94770000
S11300A00C9477000C9477000C9477000C947700F0
S11300B00C94770011241FBECFEFD8E0DEBFCDBF74
S11300C011E0A0E0B1E0E8E5F2E002C005900D9295
S11300D0A431B107D9F721E0A4E1B1E001C01D9238
S11300E0A931B207E1F70E9479000C942A010C941B
S11300F00000F89480E284B915B81092800085E07D
S11301008093810086EF92EC909385008093840025
S113011010926F0080ED8093C10086E08093C2004E
S113012087E690E09093C5008093C4001092C600C7
S11301307894FFCF1F920F920FB60F9211248F93D2
S11301409F9380911401909115010196909315014C
S113015080931401099771F41092170110921601FB
S113016081E080936F00109215011092140180EDCC
S11301708093C1009F918F910F900FBE0F901F909D
S113018018951F920F920FB60F9211248F939F937D
S11301908091C60080931801813681F488ED8093A4
S11301A0C10080E285B981E090E0909317018093CB
S11301B0160180936F001092C60011C0823679F444
S11301C088ED8093C10015B882E090E09093170108
S11301D08093160181E080936F001092C6009F9176
S11301E08F910F900FBE0F901F9018951F920F9232
S11301F00FB60F9211248F939F93EF93FF938091E7
S11302001601909117018130910551F4E091140188
S1130210F0911501E65FFE4F80818093C6000BC00C
S1130220029749F4E0911401F0911501E050FF4F59
S113023080818093C60082E69FEF9093850080932F
S11302408400FF91EF919F918F910F900FBE0F90BB
S10B02501F901895F894FFCFEC
S1130258206C65646F66660A0000206C65646F6EC6
S10702680A00000084
S9030000FC
