S01400006C65646F6E6F6666317365632E7372656357
S11300000C9434000C943E000C943E000C943E007E
S11300100C943E000C943E000C943E000C943E0064
S11300200C943E000C943E000C943E000C943E0054
S11300300C943E000C9454000C943E000C943E002E
S11300400C943E000C943E000C943E000C943E0034
S11300500C943E000C943E000C943E000C943E0024
S11300600C943E000C943E0011241FBECFEFD8E048
S1130070DEBFCDBF0E9440000C946F000C940000C2
S1130080F89480E284B985B91092800085E0809369
S1130090810086EF92EC909385008093840081E048
S11300A080936F007894FFCF1F920F920FB60F9238
S11300B011248F939F9385B1811103C080E285B988
S11300C001C015B886EF92EC90938500809384006C
S11300D09F918F910F900FBE0F901F901895F894D9
S10500E0FFCF4C
S9030000FC
