S01A00006576656E6C65646F6E6F64646C65646F66662E73726563A3
S11300000C9434000C9446000C9446000C94460066
S11300100C9446000C9446000C9446000C94460044
S11300200C9446000C9446000C9446000C94460034
S11300300C9446000C9446000C9446000C94460024
S11300400C9446000C9446000C945B000C944600FF
S11300500C9446000C9446000C9446000C94460004
S11300600C9446000C94460011241FBECFEFD8E038
S1130070DEBFCDBF21E0A0E0B1E001C01D92A03001
S1130080B207E1F70E9448000C946F000C94000042
S1130090F89480E284B915B887E690E09093C5009F
S11300A08093C4001092C00080ED8093C100109230
S11300B0C6007894FFCF1F920F920FB60F921124AF
S11300C08F938091C60080FD03C080E285B901C092
S11300D015B88F910F900FBE0F901F901895F8943C
S10500E0FFCF4C
S9030000FC
