S015000074776F706861736574696D65722E7372656383
S11300000C9434000C9451000C9451000C94510045
S11300100C9451000C9451000C9451000C94510018
S11300200C9451000C9451000C9451000C94510008
S11300300C9451000C9472000C9451000C945100D7
S11300400C9451000C9451000C9451000C945100E8
S11300500C94AC000C9451000C9451000C9451007D
S11300600C9451000C94510011241FBECFEFD8E022
S1130070DEBFCDBF11E0A0E0B1E0EEEBF1E002C0E5
S113008005900D92A231B107D9F721E0A2E1B1E0C8
S113009001C01D92A431B207E1F70E9453000C94F1
S11300A0DD000C940000F89480E284B985B987E6F9
S11300B090E09093C5008093C4001092C00080ED3E
S11300C08093C1001092C6001092850010928400A3
S11300D01092800085E08093810081E080936F001E
S11300E07894FFCF1F920F920FB60F9211248F9323
S11300F09F93EF93FF9385B1803299F488ED8093B9
S1130100C10086EC93EF9093850080938400E09186
S11301101201F0911301E75FFE4F80818093C600C6
S113012012C088ED8093C10086EC93EF9093850014
S113013080938400E0911201F0911301E050FF4F8D
S113014080818093C600FF91EF919F918F910F90D2
S11301500FBE0F901F9018951F920F920FB60F921B
S113016011248F939F938091120190911301019612
S11301708930910529F0909313018093120116C0E0
S113018010921301109212011092C60080ED809318
S1130190C10084EE98E4909385008093840085B137
S11301A0803211F415B802C080E285B99F918F9115
S11101B00F900FBE0F901F901895F894FFCF7C
S11301BE6C65646F66660A00006C65646F6E0A0097
S10501CE00002B
S9030000FC
