S00B00006C64722E73726563D7
S11300000C9434000C9446000C9446000C94460066
S11300100C9446000C9446000C9446000C94460044
S11300200C9446000C9446000C9446000C94460034
S11300300C9446000C9446000C9446000C94460024
S11300400C9446000C9446000C9446000C94460014
S11300500C9446000C9454000C9446000C944600F6
S11300600C9446000C94460011241FBECFEFD8E038
S1130070DEBFCDBF21E0A0E0B1E001C01D92A230FF
S1130080B207E1F70E9448000C9475000C9400003C
S1130090F89480E284B915B880E480937C008FEEF4
S11300A080937A007894FFCF1F920F920FB60F922D
S11300B011242F938F939F9380917800209179003E
S11300C090E0922B9093010180930001893E93402C
S11300D01CF080E285B901C015B89F918F912F91D2
S11100E00F900FBE0F901F901895F894FFCF4D
S9030000FC
