:100000000C9434000C9446000C9446000C9446006A
:100010000C9446000C9446000C9446000C94460048
:100020000C9446000C9446000C9446000C94460038
:100030000C9446000C948F000C9446000C944600DF
:100040000C9446000C9446000C9466000C944600F8
:100050000C9446000C9446000C9446000C94460008
:100060000C9446000C94460011241FBECFEFD8E03C
:10007000DEBFCDBF21E0A0E0B1E001C01D92A13004
:10008000B207E1F70E9448000C94B1000C94000004
:10009000F89480E284B915B81092800085E08093CE
:1000A0008100109285001092840010926F0087E604
:1000B00090E09093C5008093C4001092C00080ED42
:1000C0008093C1001092C6007894FFCF1F920F92C8
:1000D0000FB60F9211248F939F938091C600809347
:1000E0000001813651F484EE98E49093850080936A
:1000F000840081E080936F000BC0823649F484EE67
:1001000098E4909385008093840081E080936F0051
:100110009F918F910F900FBE0F901F9018951F9277
:100120000F920FB60F9211248F93809100018136A8
:1001300049F480E285B910928500109284001092F3
:100140006F0009C0823639F415B8109285001092FC
:10015000840010926F008F910F900FBE0F901F9030
:060160001895F894FFCF92
:00000001FF
