:100000000C945A000C946C000C946C000C946C00D2
:100010000C946C000C946C000C946C000C946C00B0
:100020000C946C000C946C000C946C000C946C00A0
:100030000C946C000C9488000C946C000C946C0074
:100040000C946C000C946C000C946C000C946C0080
:100050000C946C000C946C000C946C000C946C0070
:100060000C946C000C946C000C946C000C946C0060
:100070000C946C000C946C000C946C000C946C0050
:100080000C946C000C946C000C946C000C946C0040
:100090000C946C000C946C000C946C000C946C0030
:1000A0000C946C000C946C000C946C000C946C0020
:1000B0000C946C0011241FBECFEFD8E0DEBFCDBF83
:1000C00021E0A0E0B1E001C01D92A230B207E1F74B
:1000D0000E946E000C94A3000C940000F8941092FF
:1000E00001011092000110928000E1E8F0E010821E
:1000F00080E284B98DEE95E890938500809384002A
:1001000085E0808381E080936F0015B87894FFCFFD
:100110001F920F920FB60F9211248F939F9385B168
:10012000811103C080E285B901C015B88DEE95E854
:1001300090938500809384009F918F910F900FBEC4
:0A0140000F901F901895F894FFCF60
:00000001FF
