:100000000C9434000C9451000C9451000C94510049
:100010000C9451000C9451000C9451000C9451001C
:100020000C9451000C9451000C9451000C9451000C
:100030000C9451000C949D000C9451000C945100B0
:100040000C9451000C9451000C9471000C945100CC
:100050000C94CE000C9451000C9451000C9451005F
:100060000C9451000C94510011241FBECFEFD8E026
:10007000DEBFCDBF11E0A0E0B1E0ECEEF1E002C0E8
:1000800005900D92A231B107D9F721E0A2E1B1E0CC
:1000900001C01D92A531B207E1F70E9453000C94F4
:1000A000F4000C940000F89480E284B915B887E657
:1000B00090E09093C5008093C4001092C00080ED42
:1000C0008093C1001092C6001092800085E080935A
:1000D0008100109285001092840010926F00789435
:1000E000FFCF1F920F920FB60F9211248F939F9301
:1000F0008091C60080931401813661F480E285B955
:1001000086EC9EEF909385008093840081E080933D
:100110006F000CC0823651F415B886EC9EEF9093B8
:1001200085008093840081E080936F009F918F9180
:100130000F900FBE0F901F9018951F920F920FB641
:100140000F9211248F939F93EF93FF9386EC9EEF72
:10015000909385008093840088ED8093C10085B1E1
:10016000803251F4E0911201F0911301E75FFE4FEC
:1001700080818093C60009C0E0911201F0911301C3
:10018000E050FF4F80818093C600FF91EF919F91D7
:100190008F910F900FBE0F901F9018951F920F9286
:1001A0000FB60F9211248F939F938091120190911B
:1001B000130101969093130180931201099769F43A
:1001C000109285001092840010926F0080ED809351
:1001D000C10010921301109212019F918F910F9004
:0C01E0000FBE0F901F901895F894FFCFF1
:1001EC006C65646F66660A00006C65646F6E0A006D
:0201FC00000001
:00000001FF
