S01000006C65646F6E6F66662E73726563C7
S11300000C9434000C9446000C9446000C94460066
S11300100C9446000C9446000C9446000C94460044
S11300200C9446000C9446000C9446000C94460034
S11300300C9446000C945A000C9446000C94460010
S11300400C9446000C9446000C9446000C94460014
S11300500C9446000C9446000C9446000C94460004
S11300600C9446000C94460011241FBECFEFD8E038
S1130070DEBFCDBF21E0A0E0B1E001C01D92A230FF
S1130080B207E1F70E9448000C9492000C9400001F
S1130090F89480E284B915B81092800085E08093CA
S11300A08100109285001092840081E080936F009B
S11300B07894FFCF1F920F920FB60F9211248F9353
S11300C09F9384EE98E490938500809384008091BC
S11300D000019091010183309105E8F4029791F4B5
S11300E085B1803231F415B81092010110920001EB
S11300F009C085B1811106C080E285B91092010161
S11301001092000180910001909101010196909359
S11301100101809300019F918F910F900FBE0F906A
S10B01201F901895F894FFCF1D
S9030000FC
